:100000000C942A000C943F000C943F000C943F0089
:100010000C943F000C943F000C943F000C943F0064
:100020000C943F000C943F000C943F000C943F0054
:100030000C943F000C943F000C943F000C943F0044
:100040000C943F000C943F000C943F000C943F0034
:100050000C943F0011241FBECFE5D8E0DEBFCDBF1A
:1000600010E0A0E6B0E0E2E0F6E002C005900D92FC
:10007000A836B107D9F70E949D020C94FF020C9498
:1000800000004130B1F5813099F0813030F082309C
:10009000D1F0833009F06BC021C02AB381E090E039
:1000A00002C0880F991F6A95E2F7282B2ABB5DC012
:1000B00027B381E090E002C0880F991F6A95E2F7AC
:1000C000282B27BB52C024B381E090E002C0880FE8
:1000D000991F6A95E2F7282B24BB47C021B381E022
:1000E00090E002C0880F991F6A95E2F7282B21BB88
:1000F0003CC0442311F080E00895813099F08130B4
:1001000028F08230D9F0833091F524C02AB381E001
:1001100090E002C0880F991F6A95E2F780958223CC
:100120008ABB23C027B381E090E002C0880F991FEB
:100130006A95E2F78095822387BB17C024B381E0DC
:1001400090E002C0880F991F6A95E2F7809582239C
:1001500084BB0BC021B381E090E002C0880F991FDF
:100160006A95E2F78095822381BB81E0089581E062
:1001700008954130B1F5813099F0813030F082300E
:10018000D1F0833009F067C021C02BB381E090E04B
:1001900002C0880F991F6A95E2F7282B2BBB0895A0
:1001A00028B381E090E002C0880F991F6A95E2F7BA
:1001B000282B28BB089525B381E090E002C0880F6A
:1001C000991F6A95E2F7282B25BB089522B381E099
:1001D00090E002C0880F991F6A95E2F7282B22BB96
:1001E00008954423C1F5813099F0813028F08230A0
:1001F000D9F0833081F524C02BB381E090E002C0B8
:10020000880F991F6A95E2F7809582238BBB08952A
:1002100028B381E090E002C0880F991F6A95E2F749
:100220008095822388BB089525B381E090E002C0C9
:10023000880F991F6A95E2F78095822385BB089500
:1002400022B381E090E002C0880F991F6A95E2F71F
:100250008095822382BB0895813051F0813030F047
:10026000823041F0833079F080E0089589B303C093
:1002700086B301C083B390E002C0959587956A95D7
:10028000E2F78170089580B390E002C0959587955C
:100290006A95E2F781700895813049F0813028F045
:1002A000823039F0833041F406C06ABB089567BBE1
:1002B000089564BB089561BB0895813049F0813091
:1002C00028F0823039F0833041F406C06BBB0895CA
:1002D00068BB089565BB089562BB08950F931F9393
:1002E000182F81E060E041E00E94B90081E061E008
:1002F00040E00E94B90080E0612F0E945D0181E032
:1003000062E041E00E94B90000ED17E0C8010197EA
:10031000F1F781E062E040E00E94B900C801019776
:10032000F1F71F910F910895883010F40E946E012B
:1003300008958F929F92BF92CF92DF92EF92FF9299
:100340000F931F93DF93CF93CDB7DEB72A970FB6E6
:10035000F894DEBF0FBECDBF6B017C01FE0131966C
:100360008AE0DF011D928A95E9F7BB244F011BC08B
:1003700084010B0D111DC701B6012AE030E040E0F9
:1003800050E00E94C202605DF8016083B394C7012F
:10039000B6012AE030E040E050E00E94C202C9010C
:1003A000DA016C017D011C141D041E041F0404F3FA
:1003B000FB2CFA940F2D112707FD1095080D191D20
:1003C00007C0D8018C910E946E01FA940150104030
:1003D000F7FEF7CF2A960FB6F894DEBF0FBECDBF5B
:1003E000CF91DF911F910F91FF90EF90DF90CF9011
:1003F000BF909F908F9008951F93CF93DF93EC0150
:1004000010E003C00E946E011F5FFE01E10FF11DAD
:1004100080818823B9F7DF91CF911F9108950F93C1
:100420001F93182F81E060E040E00E94B90081E056
:1004300061E040E00E94B90080E0612F0E945D0110
:1004400081E062E041E00E94B90000ED17E0C801E0
:100450000197F1F781E062E040E00E94B900C80135
:100460000197F1F71F910F9108950F931F93CF9369
:10047000DF938B01880F880F880F805C0E940F022A
:10048000C0E0D0E0F801EC0FFD1F80810E946E01FA
:100490002196C830D105B1F780E80E940F02DF91A4
:1004A000CF911F910F910895662319F0613041F4A7
:1004B00004C080580E940F02089580540E940F02C9
:1004C00008950F931F9380E06FEF0E944C0181E02D
:1004D00060E041E00E94410081E061E041E00E9473
:1004E000410081E062E041E00E94410084EF91E040
:1004F00028EC30E0F9013197F1F70197D9F788E35B
:100500000E940F0200ED17E0C8010197F1F78FE09C
:100510000E940F02C8010197F1F781E00E940F02CB
:1005200080E797E10197F1F786E00E940F02C8018A
:100530000197F1F71F910F910895DF93CF93CDB7F6
:10054000DEB728970FB6F894DEBF0FBECDBF0E946E
:100550006102DE011196E0E6F0E088E001900D9284
:100560008150E1F781E090E0BE016F5F7F4F0E9414
:10057000350284E061E00E94540281E090E00E9434
:100580009401FFCF97FB092E05260ED057FD04D00E
:1005900014D00AD0001C38F4509540953095219520
:1005A0003F4F4F4F5F4F0895F6F7909580957095A8
:1005B00061957F4F8F4F9F4F0895A1E21A2EAA1B7E
:1005C000BB1BFD010DC0AA1FBB1FEE1FFF1FA21703
:1005D000B307E407F50720F0A21BB30BE40BF50B00
:1005E000661F771F881F991F1A9469F76095709589
:1005F000809590959B01AC01BD01CF010895F894C1
:02060000FFCF2A
:08060200000A1F1F0E04000096
:00000001FF
