:100000000C942A000C9447000C9447000C94470071
:100010000C9447000C9447000C9447000C943F0646
:100020000C9447000C9447000C9447000C94470034
:100030000C9447000C9447000C9447000C94470024
:100040000C9438020C9447000C9447000C94470021
:100050000C94470011241FBECFE5D8E0DEBFCDBF12
:1000600010E0A0E6B0E0E8E5FCE102C005900D92EA
:10007000A836B107D9F714E0A8E6B0E001C01D9298
:10008000AC3EB107E1F70E9402050C942A0E0C94D5
:10009000000088E18AB986E880BD83E389B90895C4
:1000A0005D9BFECF8CB908955F9BFECF8CB1089508
:1000B0008FB98FB108958FB908958FB1089581E0F8
:1000C00065E041E00E94950081E067E041E00E9428
:1000D000950081E066E040E00E94950086ED8DB9D4
:1000E00008958FB780688FBF08958FB78F778FBFC0
:1000F000089585B7886085BF85B78B7F85BF8BB72F
:1001000080648BBF85B7826085BF85B78E7F85BFD2
:100110008BB780648BBF84B7806484BF8BB78064E7
:100120008BBF08950895089508954130B1F5813049
:1001300099F0813030F08230D1F0833009F06BC01B
:1001400021C02AB381E090E002C0880F991F6A9510
:10015000E2F7282B2ABB5DC027B381E090E002C004
:10016000880F991F6A95E2F7282B27BB52C024B34A
:1001700081E090E002C0880F991F6A95E2F7282B72
:1001800024BB47C021B381E090E002C0880F991FD3
:100190006A95E2F7282B21BB3CC0442311F080E094
:1001A0000895813099F0813028F08230D9F0833081
:1001B00091F524C02AB381E090E002C0880F991F16
:1001C0006A95E2F7809582238ABB23C027B381E03A
:1001D00090E002C0880F991F6A95E2F7809582230C
:1001E00087BB17C024B381E090E002C0880F991F3D
:1001F0006A95E2F78095822384BB0BC021B381E02E
:1002000090E002C0880F991F6A95E2F780958223DB
:1002100081BB81E0089581E008954130B1F58130DE
:1002200099F0813030F08230D1F0833009F067C02E
:1002300021C02BB381E090E002C0880F991F6A951E
:10024000E2F7282B2BBB089528B381E090E002C091
:10025000880F991F6A95E2F7282B28BB089525B3CC
:1002600081E090E002C0880F991F6A95E2F7282B81
:1002700025BB089522B381E090E002C0880F991F4A
:100280006A95E2F7282B22BB08954423C1F58130FB
:1002900099F0813028F08230D9F0833081F524C084
:1002A0002BB381E090E002C0880F991F6A95E2F7B6
:1002B000809582238BBB089528B381E090E002C033
:1002C000880F991F6A95E2F78095822388BB08956D
:1002D00025B381E090E002C0880F991F6A95E2F78C
:1002E0008095822385BB089522B381E090E002C00F
:1002F000880F991F6A95E2F78095822382BB089543
:10030000813051F0813030F0823041F0833079F02B
:1003100080E0089589B303C086B301C083B390E041
:1003200002C0959587956A95E2F78170089580B32C
:1003300090E002C0959587956A95E2F781700895DF
:10034000813049F0813028F0823039F0833041F437
:1003500006C06ABB089567BB089564BB089561BB7E
:100360000895813049F0813028F0823039F08330AF
:1003700041F406C06BBB089568BB089565BB089542
:1003800062BB0895813091F0813028F08230C9F04D
:10039000833061F521C02BB381E090E002C0880F6B
:1003A000991F6A95E2F728272BBB089528B381E0AF
:1003B00090E002C0880F991F6A95E2F7282728BBB2
:1003C000089525B381E090E002C0880F991F6A95D7
:1003D000E2F7282725BB089522B381E090E002C010
:1003E000880F991F6A95E2F7282722BB08953F9846
:1003F0003E9A3D9886B1887F836086B93598339A56
:10040000379A089597B18770907E892B87B9369A6D
:10041000349BFECF349A24B135B1C901089597B108
:100420008770907E892B87B9369A089524B135B1AB
:10043000C90108959093E9048093E80408955093C6
:10044000E9044093E8047093EB046093EA0497B1E5
:100450008770907E892B87B9369A089586B18295E8
:100460008F7080FF02C01092650080916500089532
:100470001F920F920FB60F9211242F933F934F9319
:100480005F936F937F938F939F93AF93BF93EF93FC
:10049000FF93E091EA04F091EB04309721F084B1EE
:1004A00095B1918380838091E8049091E904892B30
:1004B00039F084B195B1E091E604F091E704099533
:1004C00010926500FF91EF91BF91AF919F918F9135
:1004D0007F916F915F914F913F912F910F900FBE40
:1004E0000F901F901895EF92FF920F931F93FC01AE
:1004F0000580F681E02DE680F7808701045F1F4FBD
:10050000C8010E94DA0489E990E0B8010E947C04E5
:1005100020E0E0916800F0916900D70156969C9127
:100520008689981708F021E0822F1F910F91FF9084
:10053000EF900895FF920F931F93CF93DF9399E06D
:10054000F92E21C0F894E0919E00F0919F00068161
:100550001781C8010C960E94DA047894E80122966B
:10056000CE010E94DA04F801968980916A00891709
:1005700010F490936A009F9DC00111248F589F4FE3
:10058000BE010E947C04809199008823D9F60E94C4
:10059000820920916B0030916C00821B930B909329
:1005A0006E0080936D0089E0F82E53C00196909301
:1005B000700080936F002150304030936E00209384
:1005C0006D00892B09F03EC0209195003091960076
:1005D0008091970090919800909396008093950059
:1005E00030939800209397002DC00580F681E02D70
:1005F000C681D78120916F00309170008A819B81E4
:100600002817390730F1F8948E010E5F1F4FC8018B
:100610000E94DA048C899D89892B21F0CE010C96E9
:100620000E94DA0478949E8980916A00891710F4F8
:1006300090936A009F9DC00111248F589F4FB8016D
:100640000E947C04E0919500F091960080818823BF
:1006500061F620916D0030916E0080916F00909155
:1006600070002115310509F0A1CF90936C008093A3
:100670006B0090916A0029E006C0992319F410924A
:100680006A0032C09150929FD0011124AF58BF4FE1
:100690008C91882391F390936A001196ED91FC91CF
:1006A00012970280F381E02D1296FC93EE9311973E
:1006B000CD010396E817F90731F4828193811296F0
:1006C0009C938E9311971196ED91FC911297068051
:1006D000F781E02DF0936900E0936800208131817B
:1006E000CF016789F9010995DF91CF911F910F9192
:1006F000FF9008950F931F93CF93DF93EB01009129
:100700006F0010917000080F191F80916800909180
:10071000690002960E94DA04E0916800F091690095
:100720001383028380916F0090917000BF016E5F10
:100730007F4F0817190728F480919700909198002F
:1007400004C080919500909196000E94A504209786
:1007500049F06091680070916900645F7F4FCE013D
:100760000E94A504DF91CF911F910F910895AF9240
:10077000BF92CF92DF92EF92FF920F931F93CF938E
:10078000DF936C01B62EA42E8AE190E00E94410412
:10079000EC01009711F48FEF59C08091680090919F
:1007A0006900892B21F5D0936900C093680081E727
:1007B00090E00E9468048AE790E00E94680423E8C1
:1007C000E22E20E0F22EC7010E9468040CE810E03F
:1007D000C8010E94680489E990E00E946804F092D0
:1007E0009600E09295001093980000939700EB2CF0
:1007F000BB2011F0EE24E394198E188EEE8AAF8A96
:10080000FE01C192D1928F01CF010E947804CE01E6
:100810000C960E947804D987C887DB8BCA8B84E04A
:1008200090E08E1991099D878C879E8980916A003E
:10083000891710F490936A0089E0989FC0011124F1
:100840008F589F4FB8010E947C0481E0DF91CF91C7
:100850001F910F91FF90EF90DF90CF90BF90AF90DE
:10086000089508951092A3001092A200089528EE12
:1008700033E08091A2009091A300281B390BC9019D
:1008800008950F931F93CF93DF938C010E947C09EF
:100890008091A2009091A3009801280F391F43E096
:1008A000283E340758F48217930740F4EC01CC55E6
:1008B000DF4F3093A3002093A20002C0C0E0D0E03D
:1008C0000E94580BCE01DF91CF911F910F91089597
:1008D000FC019C012D5F3F4F328321838FEF9FEFFF
:1008E00094838383368325833087278310820895FA
:1008F000FC01118610860895CF93DF93AC01DB01D4
:10090000EC0129813A81F9018281938113969C93AC
:100910008E93129789819A8115969C938E93149742
:100920000280F381E02D75836483E9017B836A8310
:10093000FA017283618319965C934E9318978081B4
:100940008F5F8083DF91CF910895CF93DF939C01D8
:10095000EB01488159818FEF4F3F580721F4F9018E
:10096000A781B08510C0D901139604C012960D90CE
:10097000BC91A02D1296ED91FC91139780819181ED
:100980004817590798F71296ED91FC911397FB833E
:10099000EA83D583C483BD83AC831396DC93CE9363
:1009A000129739872887F90180818F5F8083DF91D3
:1009B000CF910895CF93DF93DC011296ED91FC91D6
:1009C000139714968D919C91159795838483149613
:1009D000CD91DC911597FB83EA831896ED91FC91FC
:1009E0001997818192818A179B0711F4D283C18361
:1009F00019961C921E921897808181508083DF91F6
:100A0000CF910895AF92BF92CF92DF92EF92FF9273
:100A10000F9380E060E041E00E94950080E061E09B
:100A200041E00E94950080E062E041E00E94950074
:100A30008DE595E060E070E044E650E020E030E0D5
:100A400001E0EE24FF24CC24DD24AA24BB240E9450
:100A5000BC0C84E595E060E070E044E650E020E006
:100A600030E002E00E94BC0C8BE495E060E070E0B6
:100A700044E650E020E030E003E00E94BC0C0E941D
:100A8000E00D80E090E00F91FF90EF90DF90CF902D
:100A9000BF90AF90089580E062E00E94C20184E6BA
:100AA00090E00E94D30BF7CF80E061E00E94C2018A
:100AB00082E390E00E94D30BF7CF80E060E00E94D9
:100AC000C20182E390E00E94D30BF7CFFC0191E1D9
:100AD000908322E2229383E3829362937293129231
:100AE00080E88293129282E0829383E0829384E092
:100AF000829385E0829386E0829387E0829388E008
:100B0000829389E0829380E18293929382E182933F
:100B100083E1829384E1829385E1829386E18293EB
:100B200087E1829388E1829389E1829380E28293D4
:100B300081E28293229383E282934293529386E2EC
:100B4000829387E2829388E2829389E2829380E3B0
:100B5000829381E382933197CF0108951BBC8CE788
:100B60008ABD8BE08EBD89B7806189BFA0918C045E
:100B7000B0918D04CD91CDBFDD91DEBFFF91EF919E
:100B8000DF91CF91BF91AF919F918F917F916F91A5
:100B90005F914F913F912F911F910F91FF90EF9097
:100BA000DF90CF90BF90AF909F908F907F906F908D
:100BB0005F904F903F902F901F900F900FBE0F901F
:100BC000089581E0089508950F920FB6F8940F925A
:100BD0001F9211242F923F924F925F926F927F92B9
:100BE0008F929F92AF92BF92CF92DF92EF92FF923D
:100BF0000F931F932F933F934F935F936F937F9325
:100C00008F939F93AF93BF93CF93DF93EF93FF9314
:100C1000A0918C04B0918D040DB60D920EB60D927C
:100C20000E94600A0E949609A0918C04B0918D04E4
:100C3000CD91CDBFDD91DEBFFF91EF91DF91CF91DF
:100C4000BF91AF919F918F917F916F915F914F91E4
:100C50003F912F911F910F91FF90EF90DF90CF90D8
:100C6000BF90AF909F908F907F906F905F904F90CC
:100C70003F902F901F900F900FBE0F9008950E94ED
:100C8000E40518950F920FB6F8940F921F92112455
:100C90002F923F924F925F926F927F928F929F928C
:100CA000AF92BF92CF92DF92EF92FF920F931F937A
:100CB0002F933F934F935F936F937F938F939F9364
:100CC000AF93BF93CF93DF93EF93FF93A0918C04E7
:100CD000B0918D040DB60D920EB60D920E9496093C
:100CE000A0918C04B0918D04CD91CDBFDD91DEBF7C
:100CF000FF91EF91DF91CF91BF91AF919F918F9134
:100D00007F916F915F914F913F912F911F910F9123
:100D1000FF90EF90DF90CF90BF90AF909F908F901B
:100D20007F906F905F904F903F902F901F900F900B
:100D30000FBE0F900895FC010FB6F8940F92828DAC
:100D40000F900FBE0895FC01828D0895FC01828DE5
:100D500090E0882309F491E0892F0895FC01928D99
:100D600020E0838D981709F421E0822F08950F93D6
:100D70001F938C01FC01808191810E943104C80184
:100D80000E9431041F910F9108950F931F93CF93E9
:100D9000DF93EC01FB018A018A8D882381F1488170
:100DA000598141155105A9F08C8D2E813F81280F65
:100DB000311D3F832E838A819B812817390710F0CC
:100DC0005F834E834C8D6E817F81CF0150E00E9406
:100DD0000B0E8A8D81508A8F8D8D8F3F69F48885A7
:100DE000882361F0CE0108960E94210A882331F001
:100DF00081E0F801808303C08F5F8D8F81E0DF91F8
:100E0000CF911F910F910895CF93DF93EC01842F21
:100E10004C8D4423A1F18823B1F48C819D8150E055
:100E20000E940B0E8C8D2C813D81280F311D3D833E
:100E30002C838A819B812817390708F18881998141
:100E40009D838C831CC08E819F8150E00E940B0E7D
:100E50008C8D90E044275527481B590B8E819F812C
:100E6000840F951F9F838E83288139818217930772
:100E700030F48A819B81840F951F9F838E838A8D96
:100E80008F5F8A8FDF91CF9108950F931F93CF9338
:100E9000DF93EC018A019A8D8B8D981710F080E01A
:100EA00017C0CE01422F0E9404078E8D8F3F69F438
:100EB0008989882361F0CE0141960E94210A882306
:100EC00031F081E0F801808303C08F5F8E8F81E075
:100ED000DF91CF911F910F9108950F931F93CF939F
:100EE000DF93EC010FB6F8940F928C010F5E1F4F49
:100EF0000DC08989882369F0C8010E94210A8823CE
:100F000011F00E941D0A8E8D81508E8F8E8D1816C5
:100F100084F38FEF8E8F0F900FBE0FB6F8940F9261
:100F20008E01085F1F4F0DC08885882369F0C801B6
:100F30000E94210A882311F00E941D0A8D8D815084
:100F40008D8F8D8D181684F38FEF8D8F0F900FBEC0
:100F5000DF91CF911F910F9108957F928F929F9271
:100F6000AF92BF92CF92DF92EF92FF920F931F93B7
:100F7000DF93CF9300D000D00F92CDB7DEB78C01B6
:100F8000962E872E5D834C83722E91E1C92ED12C33
:100F9000C00ED11E20E07E010894E11CF11C84E00B
:100FA000A82EB12CAC0EBD1E01C021E00FB6F894E6
:100FB0000F92F801828D882309F43EC0E680F78005
:100FC0004081518141155105B1F0848D9701280F61
:100FD000311D37832683828193812817390710F0CA
:100FE00057834683F801448D66817781892D982D3A
:100FF00050E00E940B0E772071F4F801828D815031
:10100000828F80858823A1F0C80108960E94210A5A
:10101000813071F40BC0F801F782E6828189882360
:1010200039F0C6010E94210A882311F00E9442066D
:101030000F900FBE81E04AC08C819D81892B19F4ED
:101040000F900FBE42C0222319F4C7010E94D80995
:101050000F900FBE0E947C090FB6F8940F92F80112
:10106000858D8F3F09F4158EF801868D8F3F09F429
:10107000168E0F900FBEC701B5010E94E3098823A9
:10108000F9F40FB6F8940F92F801828D0F900FBE0D
:10109000882381F46C817D81C6010E943B0BC801CD
:1010A0000E946D070E94580B882309F07ECF0E9492
:1010B00042067BCFC8010E946D070E94580B75CF76
:1010C000C8010E946D070E94580B80E00F900F909E
:1010D0000F900F900F90CF91DF911F910F91FF9084
:1010E000EF90DF90CF90BF90AF909F908F907F90C8
:1010F00008957F928F929F92AF92BF92CF92DF928C
:10110000EF92FF920F931F93DF93CF9300D000D005
:101110000F92CDB7DEB78C016B015D834C83722ECD
:1011200048E0E42EF12CE80EF91E20E05E01089460
:10113000A11CB11C34E0832E912C8C0E9D1E01C08D
:1011400021E00FB6F8940F92F801928D838D9817D5
:10115000A8F4C801B601472D0E940407F80181894F
:10116000882341F0C80141960E94210A813011F480
:101170000E9442060F900FBE81E04CC08C819D8181
:10118000892B19F40F900FBE44C0222319F4C50116
:101190000E94D8090F900FBE0E947C090FB6F894E8
:1011A0000F92F801858D8F3F09F4158EF801868D19
:1011B0008F3F09F4168E0F900FBEC501B4010E9437
:1011C000E309882309F50FB6F8940F92F801928D80
:1011D0000F900FBEF801838D981781F46C817D818B
:1011E000C7010E943B0BC8010E946D070E94580B6B
:1011F000882309F0A5CF0E944206A2CFC8010E9411
:101200006D070E94580B9CCFC8010E946D070E9479
:10121000580B80E00F900F900F900F900F90CF9190
:10122000DF911F910F91FF90EF90DF90CF90BF90D3
:10123000AF909F908F907F900895AF92BF92CF9282
:10124000DF92EF92FF920F931F93CF93DF93B82E0D
:10125000A62E882309F442C08FE190E00E94410449
:10126000EC010097D9F1EB2CFF24CA2CDD24CE9C95
:101270008001CF9C100DDE9C100D1124C801019639
:101280000E9441049C0199838883009721F1080FF3
:10129000191F1B830A831A8E9D838C830894E1088F
:1012A000F108EC9CC001ED9C900DFC9C900D11246C
:1012B000280F391F3F832E83BB8EAC8E8FEF8D8F0F
:1012C0008E8FCE0108960E946804CE0141960E943E
:1012D00068049E0105C0CE010E94310420E030E088
:1012E000C901DF91CF911F910F91FF90EF90DF9097
:1012F000CF90BF90AF900895809192048F5F8093BC
:10130000920408950FB6F8940F92209190043091B2
:1013100091040F900FBEC90108952091900430915F
:101320009104C901089580919504089580919204D3
:10133000882351F081E080938E0408958091930476
:1013400081508093930401C099E0E0919304E99F58
:10135000F0011124E656FB4F8081882379F39091A8
:10136000930489E0989FD0011124A656BB4F119693
:10137000ED91FC9112970280F381E02D1296FC937F
:10138000EE931197CD010396E817F90731F48281A6
:10139000938112969C938E9311971196ED91FC91E7
:1013A00012978681978190938D0480938C04089581
:1013B000FC0180918F04808380919004909191042E
:1013C000928381830895FC01DB010FB6F8940F929C
:1013D00090918F048081981749F02091900430916A
:1013E0009104818192812817390718F58091900422
:1013F00090919104218132814D915C911197821BD2
:10140000930B84179507A8F4809190049091910410
:10141000281B390B240F351F2D933C9380918F048B
:10142000808380919004909191049283818380E0E5
:1014300001C081E00F900FBE089581E080938E047B
:1014400008950F931F93CF93DF93FC010580F681DE
:10145000E02D06811781E8012C96CE010E94DA0466
:10146000809192048823A9F4E8012296CE010E947B
:10147000DA04D80156969C9180919304891710F450
:101480009093930489E0989FC001112486569B4F46
:1014900002C084ED94E0BE010E947C04E0918C04C3
:1014A000F0918D0420E0D80156969C91868998177A
:1014B00008F021E0822FDF91CF911F910F910895C5
:1014C000FF920F931F93CF93DF9380919204882311
:1014D00009F08FC0809190049091910401969093AF
:1014E0009104809390048091900490919104892BB1
:1014F00079F52091D0043091D1048091D20490915B
:10150000D3049093D1048093D0043093D3042093D8
:10151000D20480918F048F5F80938F04E091D00478
:10152000F091D1048081882319F48FEF9FEF0CC0D4
:10153000E091D004F091D1040580F681E02D068081
:10154000F781E02D828193819093670080936600FC
:1015500020919004309191048091660090916700F1
:101560002817390708F44AC089E0F82EE091D00422
:10157000F091D1048081882339F48FEF9FEF90930D
:101580006700809366003AC0E091D004F091D104E6
:101590000580F681E02DC681D7812A813B8180912B
:1015A0009004909191048217930728F43093670078
:1015B0002093660023C08E010E5F1F4FC8010E945A
:1015C000DA048C899D89892B21F0CE010C960E942A
:1015D000DA049E8980919304891710F49093930400
:1015E0009F9DC001112486569B4FB8010E947C0428
:1015F000BDCF809194048F5F80939404DF91CF914D
:101600001F910F91FF900895CF93DF93EC01E0912C
:101610008C04F0918D049383828380919004909147
:101620009104C817D90768F48091D2049091D3042B
:1016300060918C0470918D046E5F7F4F0E94A504B1
:1016400017C08091D0049091D10460918C04709166
:101650008D046E5F7F4F0E94A5048091660090917B
:101660006700C817D90720F4D0936700C0936600BD
:10167000DF91CF9108950F931F938B0160918C049C
:1016800070918D04645F7F4F0E94A50480918C044B
:1016900090918D0402960E94DA04809190049091BA
:1016A0009104800F911F0E94040B1F910F910895C8
:1016B000CF92DF92FF920F931F93DF93CF930F92FE
:1016C000CDB7DEB70FB6F8940F9280919204815097
:1016D0008093920480919204882309F058C08091ED
:1016E0009504882309F453C0198299E0F92E2DC07E
:1016F000E091D904F091DA04C680D780C6010C9637
:101700000E94DA0486010E5F1F4FC8010E94DA04AE
:10171000D60156969C9180919304891710F490936A
:1017200093049F9DC001112486569B4FB8010E94CF
:101730007C04E0918C04F0918D04D60156969C9126
:101740008689981710F0B1E0B9838091D40488237A
:1017500079F680919404882341F40CC00E94600AB9
:101760008091940481508093940480919404882300
:10177000A9F707C0E981E13021F080918E04813022
:1017800031F410928E040E94420681E001C080E094
:101790000F900FBE0F90CF91DF911F910F91FF908F
:1017A000DF90CF9008950F931F93CF93DF93EC01B9
:1017B0000097C9F0809192048F5F8093920400910A
:1017C00090041091910480918C0490918D04029664
:1017D0000E94DA04CE01800F911F0E94040B0E9428
:1017E000580B882311F40E944206DF91CF911F917C
:1017F0000F910895CF93DF93FC01EB018091920448
:101800008F5F8093920420813181C20FD31F80911A
:101810009004909191048217930728F4C217D3077C
:1018200028F020E00CC0C217D30740F0809190044C
:101830009091910420E08C179D0708F421E0D1835A
:10184000C083222351F080918C0490918D040296E4
:101850000E94DA04CE010E94040B0E94580B8823D8
:1018600011F40E944206DF91CF910895EF92FF920A
:101870000F931F93CF93DF938C010FB6F8940F92C1
:1018800080918C0490918D040817190719F400E0D9
:1018900010E003C00115110529F4C0918C04D0910A
:1018A0008D0401C0E80122E0E22EF12CEC0EFD1EB9
:1018B000C7010E94DA048C899D89892B21F0CE0111
:1018C0000C960E94DA048DED94E0B7010E947C042E
:1018D000809197048F5F80939704809198048F5F25
:1018E000809398040F900FBE80919604882321F076
:1018F000012B11F40E944206DF91CF911F910F91AD
:10190000FF90EF900895F894109296040E94E305DA
:1019100008950F931F93809197048823E1F380919A
:1019200092048F5F809392041091DD040E94580B03
:10193000112389F30FB6F8940F92E091E204F0912D
:10194000E30406811781C80102960E94DA0480919F
:1019500095048150809395048091970481508093E1
:1019600097040F900FBEF8018789908D0E94310473
:10197000C8010E943104CFCF2F923F925F926F92A5
:101980007F928F929F92AF92BF92CF92DF92EF920F
:10199000FF920F931F93DF93CF9300D000D0CDB76A
:1019A000DEB79A8389834B015A011901502E370102
:1019B00081E290E00E9441048B839C838B819C8117
:1019C000892B89F0C114D10421F4C5010E9441047E
:1019D0006C01EB81FC81D08EC78AC114D10429F43B
:1019E000CF010E9431048FEFD5C0C60165EA70E0D7
:1019F000A5010E94140E0894A108B108EB81FC8196
:101A0000E788F08CEA0CFB1CCF014996B40148E052
:101A100050E00E941B0EEB81FC8110A2052DF3E02B
:101A2000F51508F403E0EB81FC81068B42E0C42E3F
:101A3000D12CCE0EDF1EC6010E9478048B819C81C2
:101A40000C960E9478048B819C81FC019187808791
:101A500084E090E0801B910995878487F38BE28B6B
:101A6000C70169817A81A1010E946605EB81FC8131
:101A7000918380836114710421F0CF01F30191837C
:101A800080830FB6F8940F92809195048F5F8093B6
:101A9000950480918C0490918D04892BB9F5EB818C
:101AA000FC81F0938D04E0938C0480919504813047
:101AB000F1F58AE994E00E94680483EA94E00E94C8
:101AC00068048CEA94E00E94680485EB94E00E942C
:101AD00068043EEBE32E34E0F32EC7010E94680455
:101AE00007EC14E0C8010E94680484ED94E00E94B1
:101AF00068048DED94E00E946804F092D104E092B5
:101B0000D0041093D3040093D20411C080919604A2
:101B1000882369F4E0918C04F0918D04868958162D
:101B200030F08B819C8190938D0480938C04EB81A9
:101B3000FC81968980919904891710F490939904F7
:101B4000809198048F5F80939804EB81FC81968943
:101B500080919304891710F490939304EB81FC8196
:101B6000868929E0829FC001112486569B4FB601C9
:101B70000E947C040F900FBE80919604882349F048
:101B8000E0918C04F0918D048689851510F40E94F3
:101B9000420681E00F900F900F900F90CF91DF9150
:101BA0001F910F91FF90EF90DF90CF90BF90AF907B
:101BB0009F908F907F906F905F903F902F900895AF
:101BC000AF92BF92CF92DF92EF92FF920F9389E88C
:101BD0009CE060E670E045E550E020E030E000E0A9
:101BE000EE24FF24CC24DD24AA24BB240E94BC0CB8
:101BF000813049F4F89480939604109291041092E5
:101C000090040E94AE050F91FF90EF90DF90CF906F
:101C1000BF90AF900895FB01DC0102C001900D92CE
:101C200041505040D8F70895DC0101C06D934150F8
:101C30005040E0F70895FB01DC014150504048F06E
:101C400001900D920020C9F701C01D9241505040F3
:081C5000E0F70895F894FFCFBE
:081C580049444C450001FFFF67
:00000001FF
