:100000000C942A000C94D0010C9434000C9434000D
:100010000C9434000C9434000C9434000C94340090
:100020000C9434000C9434000C9434000C94340080
:100030000C9434000C9434000C9434000C94340070
:100040000C9434000C9434000C9434000C94340060
:100050000C94340011241FBECFE5D8E0DEBFCDBF25
:100060000E94BC010C94F6010C9400008FB78068CC
:100070008FBF08958FB78F778FBF089585B788603A
:1000800085BF85B78B7F85BF8BB780648BBF85B7F6
:10009000826085BF85B78E7F85BF8BB780648BBF3D
:1000A00084B7806484BF8BB780648BBF0895089544
:1000B000089508954130B1F5813099F0813030F0E4
:1000C0008230D1F0833009F06BC021C02AB381E0C7
:1000D00090E002C0880F991F6A95E2F7282B2ABB8F
:1000E0005DC027B381E090E002C0880F991F6A9538
:1000F000E2F7282B27BB52C024B381E090E002C076
:10010000880F991F6A95E2F7282B24BB47C021B3BB
:1001100081E090E002C0880F991F6A95E2F7282BD2
:1001200021BB3CC0442311F080E00895813099F058
:10013000813028F08230D9F0833091F524C02AB381
:1001400081E090E002C0880F991F6A95E2F78095E0
:1001500082238ABB23C027B381E090E002C0880FCE
:10016000991F6A95E2F78095822387BB17C024B355
:1001700081E090E002C0880F991F6A95E2F78095B0
:10018000822384BB0BC021B381E090E002C0880FC2
:10019000991F6A95E2F78095822381BB81E00895DB
:1001A00081E008954130B1F5813099F0813030F02F
:1001B0008230D1F0833009F067C021C02BB381E0D9
:1001C00090E002C0880F991F6A95E2F7282B2BBB9D
:1001D000089528B381E090E002C0880F991F6A95C6
:1001E000E2F7282B28BB089525B381E090E002C0F8
:1001F000880F991F6A95E2F7282B25BB089522B333
:1002000081E090E002C0880F991F6A95E2F7282BE1
:1002100022BB08954423C1F5813099F0813028F044
:100220008230D9F0833081F524C02BB381E090E097
:1002300002C0880F991F6A95E2F7809582238BBBD5
:10024000089528B381E090E002C0880F991F6A9555
:10025000E2F78095822388BB089525B381E090E082
:1002600002C0880F991F6A95E2F78095822385BBAB
:10027000089522B381E090E002C0880F991F6A952B
:10028000E2F78095822382BB0895813051F081305E
:1002900030F0823041F0833079F080E0089589B306
:1002A00003C086B301C083B390E002C095958795E3
:1002B0006A95E2F78170089580B390E002C0959549
:1002C00087956A95E2F781700895813049F0813011
:1002D00028F0823039F0833041F406C06ABB0895BB
:1002E00067BB089564BB089561BB0895813049F0F0
:1002F000813028F0823039F0833041F406C06BBB86
:10030000089568BB089565BB089562BB0895813068
:1003100091F0813028F08230C9F0833061F521C03E
:100320002BB381E090E002C0880F991F6A95E2F735
:1003300028272BBB089528B381E090E002C0880FE6
:10034000991F6A95E2F7282728BB089525B381E015
:1003500090E002C0880F991F6A95E2F7282725BB15
:10036000089522B381E090E002C0880F991F6A953A
:10037000E2F7282722BB089583E062E040E00E9474
:100380005A0083E062E041E00E94D20080E060E039
:1003900041E00E945A000E943E000E943600FFCFBA
:1003A0001F920F920FB60F9211242F933F934F93EA
:1003B0005F936F937F938F939F93AF93BF93EF93CD
:1003C000FF9380E060E00E948701FF91EF91BF9171
:1003D000AF919F918F917F916F915F914F913F91DD
:1003E0002F910F900FBE0F901F901895F894FFCF8C
:00000001FF
