:100000000C942A000C943F000C943F000C943F0089
:100010000C943F000C943F000C943F000C943F0064
:100020000C943F000C943F000C943F000C943F0054
:100030000C943F000C943F000C943F000C943F0044
:100040000C943F000C943F000C943F000C943F0034
:100050000C943F0011241FBECFE5D8E0DEBFCDBF1A
:1000600010E0A0E6B0E0EAE7F4E002C005900D92EF
:10007000AA37B107D9F70E94D2010C943B020C9425
:1000800000004130B1F5813099F0813030F082309C
:10009000D1F0833009F067C021C02AB381E090E03D
:1000A00002C0880F991F6A95E2F7282B2ABB089592
:1000B00027B381E090E002C0880F991F6A95E2F7AC
:1000C000282B27BB089524B381E090E002C0880F5D
:1000D000991F6A95E2F7282B24BB089521B381E08C
:1000E00090E002C0880F991F6A95E2F7282B21BB88
:1000F00008954423C1F5813099F0813028F0823091
:10010000D9F0833081F524C02AB381E090E002C0A9
:10011000880F991F6A95E2F7809582238ABB08951C
:1001200027B381E090E002C0880F991F6A95E2F73B
:100130008095822387BB089524B381E090E002C0BC
:10014000880F991F6A95E2F78095822384BB0895F2
:1001500021B381E090E002C0880F991F6A95E2F711
:100160008095822381BB08954130B1F5813099F0AB
:10017000813030F08230D1F0833009F067C021C087
:100180002BB381E090E002C0880F991F6A95E2F7D7
:10019000282B2BBB089528B381E090E002C0880F84
:1001A000991F6A95E2F7282B28BB089525B381E0B3
:1001B00090E002C0880F991F6A95E2F7282B25BBB3
:1001C000089522B381E090E002C0880F991F6A95DC
:1001D000E2F7282B22BB08954423C1F5813099F022
:1001E000813028F08230D9F0833081F524C02BB3E0
:1001F00081E090E002C0880F991F6A95E2F7809530
:1002000082238BBB089528B381E090E002C0880F61
:10021000991F6A95E2F78095822388BB089525B3DC
:1002200081E090E002C0880F991F6A95E2F78095FF
:10023000822385BB089522B381E090E002C0880F3D
:10024000991F6A95E2F78095822382BB08958130D9
:1002500051F0813030F0823041F0833079F080E02D
:10026000089589B303C086B301C083B390E002C090
:10027000959587956A95E2F78170089580B390E02F
:1002800002C0959587956A95E2F78170089581304F
:1002900049F0813028F0823039F0833041F406C0D3
:1002A0006ABB089567BB089564BB089561BB089558
:1002B000813049F0813028F0823039F0833041F4C8
:1002C00006C06BBB089568BB089565BB089562BB0B
:1002D00008958F929F92BF92CF92DF92EF92FF92FA
:1002E0000F931F93CF93DF936C01BB2400E010E0CA
:1002F00090E2892E9EE4992E84E0E82EE00E81E0C3
:100300006E2D40E00E94B400E601C00FD11FFF2413
:1003100081E06F2D0E942701882309F4B88081E0D5
:100320006F2D0E9427018823D1F3C4010197F1F7B3
:10033000F394249684E0F81659F781E06E2D41E09D
:100340000E94B4000F5F1F4F04301105A9F68B2DDA
:10035000DF91CF911F910F91FF90EF90DF90CF90A1
:10036000BF909F908F90089581E060EF0E944701B9
:1003700081E06FEF0E945801089582E060E00E94E2
:10038000580108956A3040F4E62FF0E0E05AFF4F3C
:1003900082E060810E945801089582E06FEF0E9420
:1003A000470108957F928F929F92AF92BF92CF9212
:1003B000DF92EF92FF920F931F93DF93CF93CDB70E
:1003C000DEB760970FB6F894DEBF0FBECDBFDE017B
:1003D0001196EAE6F0E080E101900D928150E1F79C
:1003E0000E94B4018FEF84BB87E285BB8E010F5F53
:1003F0001F4FEFE37E2E7DE7872E6FE7962E5FE699
:10040000A52E4BE5B42E3FE4C32E26E6D22E96E071
:10041000E92E8DE6F82EC8010E9469018530F9F0B9
:10042000863060F48230A9F0833018F4813009F509
:100430000EC0833081F08430E1F40FC0873099F032
:10044000873078F0883089F0893099F410C0E5BAA7
:10045000E2CFB5BAE0CFC5BADECFD5BADCCFF5BAB8
:10046000DACF85BAD8CF85BBD6CF95BAD4CFA5BAC7
:0A047000D2CF75BAD0CFF894FFCFB9
:10047A003F065B4F666D7D077F6F01020334353699
:0A048A003738393131322B2D2A2F7B
:00000001FF
