:100000000C942A000C9434000C9434000C943400AA
:100010000C9434000C9434000C9434000C94340090
:100020000C9434000C9434000C9434000C94340080
:100030000C9434000C9434000C9434000C94340070
:100040000C9434000C9434000C9434000C94340060
:100050000C94340011241FBECFE5D8E0DEBFCDBF25
:100060000E9403030C9441030C9400008FB7806836
:100070008FBF08958FB78F778FBF089585B788603A
:1000800085BF85B78B7F85BF8BB780648BBF85B7F6
:10009000826085BF85B78E7F85BF8BB780648BBF3D
:1000A00084B7806484BF8BB780648BBF0895089544
:1000B000089508954130B1F5813099F0813030F0E4
:1000C0008230D1F0833009F06BC021C02AB381E0C7
:1000D00090E002C0880F991F6A95E2F7282B2ABB8F
:1000E0005DC027B381E090E002C0880F991F6A9538
:1000F000E2F7282B27BB52C024B381E090E002C076
:10010000880F991F6A95E2F7282B24BB47C021B3BB
:1001100081E090E002C0880F991F6A95E2F7282BD2
:1001200021BB3CC0442311F080E00895813099F058
:10013000813028F08230D9F0833091F524C02AB381
:1001400081E090E002C0880F991F6A95E2F78095E0
:1001500082238ABB23C027B381E090E002C0880FCE
:10016000991F6A95E2F78095822387BB17C024B355
:1001700081E090E002C0880F991F6A95E2F78095B0
:10018000822384BB0BC021B381E090E002C0880FC2
:10019000991F6A95E2F78095822381BB81E00895DB
:1001A00081E008954130B1F5813099F0813030F02F
:1001B0008230D1F0833009F067C021C02BB381E0D9
:1001C00090E002C0880F991F6A95E2F7282B2BBB9D
:1001D000089528B381E090E002C0880F991F6A95C6
:1001E000E2F7282B28BB089525B381E090E002C0F8
:1001F000880F991F6A95E2F7282B25BB089522B333
:1002000081E090E002C0880F991F6A95E2F7282BE1
:1002100022BB08954423C1F5813099F0813028F044
:100220008230D9F0833081F524C02BB381E090E097
:1002300002C0880F991F6A95E2F7809582238BBBD5
:10024000089528B381E090E002C0880F991F6A9555
:10025000E2F78095822388BB089525B381E090E082
:1002600002C0880F991F6A95E2F78095822385BBAB
:10027000089522B381E090E002C0880F991F6A952B
:10028000E2F78095822382BB0895813051F081305E
:1002900030F0823041F0833079F080E0089589B306
:1002A00003C086B301C083B390E002C095958795E3
:1002B0006A95E2F78170089580B390E002C0959549
:1002C00087956A95E2F781700895813049F0813011
:1002D00028F0823039F0833041F406C06ABB0895BB
:1002E00067BB089564BB089561BB0895813049F0F0
:1002F000813028F0823039F0833041F406C06BBB86
:10030000089568BB089565BB089562BB0895813068
:1003100091F0813028F08230C9F0833061F521C03E
:100320002BB381E090E002C0880F991F6A95E2F735
:1003300028272BBB089528B381E090E002C0880FE6
:10034000991F6A95E2F7282728BB089525B381E015
:1003500090E002C0880F991F6A95E2F7282725BB15
:10036000089522B381E090E002C0880F991F6A953A
:10037000E2F7282722BB08953F983E9A3D9886B120
:10038000887F836086B935983398379A089597B1F6
:100390008770907E892B87B9369A349BFECF349A2A
:1003A00024B135B1C90108950F931F93182F81E02F
:1003B00060E041E00E94D20081E061E040E00E9404
:1003C000D20082E0612F0E94760181E062E041E08C
:1003D0000E94D20000ED17E0C8010197F1F781E01B
:1003E00062E040E00E94D200C8010197F1F71F913E
:1003F0000F910895883010F40E94D40108958F92CF
:100400009F92BF92CF92DF92EF92FF920F931F9332
:10041000DF93CF93CDB7DEB72A970FB6F894DEBF40
:100420000FBECDBF6B017C01FE0131968AE0DF017A
:100430001D928A95E9F7BB244F011BC084010B0D67
:10044000111DC701B6012AE030E040E050E00E94F3
:100450000403605DF8016083B394C701B6012AE02C
:1004600030E040E050E00E940403C901DA016C0171
:100470007D011C141D041E041F0404F3FB2CFA94BC
:100480000F2D112707FD1095080D191D07C0D80164
:100490008C910E94D401FA9401501040F7FEF7CFDE
:1004A0002A960FB6F894DEBF0FBECDBFCF91DF9175
:1004B0001F910F91FF90EF90DF90CF90BF909F9092
:1004C0008F9008951F93CF93DF93EC0110E003C04A
:1004D0000E94D4011F5FFE01E10FF11D808188237E
:1004E000B9F7DF91CF911F9108950F931F93182FA4
:1004F00081E060E040E00E94D20081E061E040E005
:100500000E94D20082E0612F0E94760181E062E0C9
:1005100041E00E94D20000ED17E0C8010197F1F719
:1005200081E062E040E00E94D200C8010197F1F74B
:100530001F910F9108950F931F93CF93DF938B011A
:10054000880F880F880F805C0E947502C0E0D0E0A1
:10055000F801EC0FFD1F80810E94D4012196C83064
:10056000D105B1F780E80E947502DF91CF911F910C
:100570000F910895662319F0613041F404C080584A
:100580000E947502089580540E94750208950F9389
:100590001F9382E06FEF0E94650181E060E041E01F
:1005A0000E945A0081E061E041E00E945A0081E02F
:1005B00062E041E00E945A0084EF91E028EC30E0D4
:1005C000F9013197F1F70197D9F788E30E94750295
:1005D00000ED17E0C8010197F1F78FE00E94750266
:1005E000C8010197F1F781E00E94750280E797E169
:1005F0000197F1F786E00E947502C8010197F1F7B3
:100600001F910F910895FFCF97FB092E05260ED05D
:1006100057FD04D014D00AD0001C38F450954095F2
:10062000309521953F4F4F4F5F4F0895F6F79095C6
:100630008095709561957F4F8F4F9F4F0895A1E2F0
:100640001A2EAA1BBB1BFD010DC0AA1FBB1FEE1F4C
:10065000FF1FA217B307E407F50720F0A21BB30B97
:10066000E40BF50B661F771F881F991F1A9469F713
:1006700060957095809590959B01AC01BD01CF016F
:060680000895F894FFCF7D
:00000001FF
