:100000000C942A000C943F000C943F000C943F0089
:100010000C943F000C943F000C943F000C943F0064
:100020000C943F000C943F000C943F000C943F0054
:100030000C943F000C943F000C943F000C943F0044
:100040000C943F000C943F000C943F000C943F0034
:100050000C943F0011241FBECFE5D8E0DEBFCDBF1A
:1000600010E0A0E6B0E0ECE7F6E002C005900D92EB
:10007000AA36B107D9F70E9425030C943C030C94CF
:100080000000E0E0F8E380819181A281B381808368
:100090009183A283B38380819181A281B381808384
:1000A0009183A283B38380859185A285B385816086
:1000B00080879187A287B38780859185A285B38544
:1000C0008D7F80879187A287B38780819181A2816C
:1000D000B38180839183A283B3830895E22F61303B
:1000E00071058105910581F16130710581059105E9
:1000F00068F0623071058105910509F443C06330F1
:1001000071058105910509F07CC05CC08091303893
:1001100090913138A0913238B091333821E030E0FD
:1001200002C0220F331FEA95E2F7442737FD4095BE
:10013000542F282B392B4A2B5B2BE0E0F8E320AB24
:1001400031AB42AB53AB0895809134389091353840
:10015000A0913638B091373821E030E002C0220F4C
:10016000331FEA95E2F7442737FD4095542F282B9B
:10017000392B4A2B5B2BE0E0F8E324AB35AB46ABE5
:1001800057AB089520914038309141384091423822
:100190005091433881E090E002C0880F991FEA95A2
:1001A000E2F7AA2797FDA095BA2F822B932BA42BB9
:1001B000B52B8093403890934138A0934238B09348
:1001C000433808952091443830914538409146385D
:1001D0005091473881E090E002C0880F991FEA955E
:1001E000E2F7AA2797FDA095BA2F822B932BA42B79
:1001F000B52B8093443890934538A0934638B093FC
:1002000047380895E22F613071058105910591F11C
:10021000613071058105910568F0623071058105D5
:10022000910509F447C0633071058105910509F016
:1002300084C062C08091303890913138A0913238BA
:10024000B091333821E030E002C0220F331FEA952D
:10025000E2F720953095442737FD4095542F282309
:1002600039234A235B23E0E0F8E320AB31AB42AB18
:1002700053AB08958091343890913538A091363839
:10028000B091373821E030E002C0220F331FEA95E9
:10029000E2F720953095442737FD4095542F2823C9
:1002A00039234A235B23E0E0F8E324AB35AB46ABCC
:1002B00057AB0895209140383091413840914238F1
:1002C0005091433881E090E002C0880F991FEA9571
:1002D000E2F780959095AA2797FDA095BA2F8223E3
:1002E0009323A423B5238093403890934138A0935F
:1002F0004238B093433808952091443830914538BE
:10030000409146385091473881E090E002C0880F14
:10031000991FEA95E2F780959095AA2797FDA095F9
:10032000BA2F82239323A423B52380934438909338
:100330004538A0934638B093473808954130B1F519
:10034000813099F0813030F08230D1F0833009F083
:100350006BC021C02AB381E090E002C0880F991FD2
:100360006A95E2F7282B2ABB5DC027B381E090E0B5
:1003700002C0880F991F6A95E2F7282B27BB52C04D
:1003800024B381E090E002C0880F991F6A95E2F7DC
:10039000282B24BB47C021B381E090E002C0880F26
:1003A000991F6A95E2F7282B21BB3CC0442311F02A
:1003B00080E00895813099F0813028F08230D9F0C2
:1003C000833091F524C02AB381E090E002C0880F09
:1003D000991F6A95E2F7809582238ABB23C027B3D1
:1003E00081E090E002C0880F991F6A95E2F780953E
:1003F000822387BB17C024B381E090E002C0880F3E
:10040000991F6A95E2F78095822384BB0BC021B3C4
:1004100081E090E002C0880F991F6A95E2F780950D
:10042000822381BB81E0089581E008954130B1F5D8
:10043000813099F0813030F08230D1F0833009F092
:1004400067C021C02BB381E090E002C0880F991FE4
:100450006A95E2F7282B2BBB089528B381E090E042
:1004600002C0880F991F6A95E2F7282B28BB0895D0
:1004700025B381E090E002C0880F991F6A95E2F7EA
:10048000282B25BB089522B381E090E002C0880F9D
:10049000991F6A95E2F7282B22BB08954423C1F5E2
:1004A000813099F0813028F08230D9F0833081F5A5
:1004B00024C02BB381E090E002C0880F991F6A9599
:1004C000E2F7809582238BBB089528B381E090E00A
:1004D00002C0880F991F6A95E2F78095822388BB36
:1004E000089525B381E090E002C0880F991F6A95B6
:1004F000E2F78095822385BB089522B381E090E0E6
:1005000002C0880F991F6A95E2F78095822382BB0B
:100510000895813051F0813030F0823041F08330E5
:1005200079F080E0089589B303C086B301C083B336
:1005300090E002C0959587956A95E2F781700895DD
:1005400080B390E002C0959587956A95E2F7817037
:100550000895813049F0813028F0823039F08330BD
:1005600041F406C06ABB089567BB089564BB089553
:1005700061BB0895813049F0813028F0823039F034
:10058000833041F406C06BBB089568BB089565BB1A
:10059000089562BB089582E060E00E94BA02089567
:1005A0006A3040F4E62FF0E0E05AFF4F82E06081CD
:1005B0000E94BA02089582E06FEF0E94A902089596
:1005C000DF92EF92FF920F931F93CF93DF93DD247F
:1005D000FF24F394C0E2DEE483E0E82EEF0C81E038
:1005E0006E2D40E00E9416020F2D10E081E0612F79
:1005F0000E948902882309F4D02E81E0612F0E9495
:1006000089028823D1F3CE010197F1F71F5F0D5FB7
:10061000143061F781E06E2D41E00E941602F394E0
:1006200084E0F816C9F68D2DDF91CF911F910F91BF
:10063000FF90EF90DF90089581E060EF0E94A902A3
:1006400081E06FEF0E94BA0208951F93CF93DF936A
:100650000E94DB0210E0C8ECD0E081E0612F0E9434
:10066000D00284EC99E0FE013197F1F70197D9F7B8
:0C0670001F5F1A3091F7FFCFF894FFCF06
:0A067C003F065B4F666D7D077F6F40
:00000001FF
