:100000000C942A000C9447000C9447000C94470071
:100010000C9447000C9447000C9477010C94470013
:100020000C9447000C9447000C9426010C94D500C6
:100030000C94E8040C9447000C9447000C9447007F
:100040000C947E030C9447000C9447000C944700DA
:100050000C94470011241FBECFE5D8E0DEBFCDBF12
:1000600010E0A0E6B0E0E4ECFAE002C005900D92EA
:10007000A236B107D9F710E0A2E6B0E001C01D92A8
:10008000AA37B107E1F70E940F050C9460050C94A4
:10009000000091B5987F982B91BD81B5886081BD96
:1000A000089588E181BD11BC089588E18AB986E888
:1000B00080BD83E389B908955D9BFECF8CB9089517
:1000C0005F9BFECF8CB108958AE683BF80E88FBD29
:1000D00082E48EBD0895882309F462BF08958823C1
:1000E00019F0813029F402C06CBF08957BBD6ABD50
:1000F0000895A0E0B0E08093700090937100A09309
:100100007200B093730070936B0060936A0083B7C2
:10011000887F826083BF0895A0E0B0E08093700084
:1001200090937100A0937200B093730050936D0090
:1001300040936C0083B7887F826083BF089583B744
:10014000887F826083BF089583B7887F83BF0895C7
:10015000882329F0823039F020E030E006C082B7F1
:10016000282F30E002C02CB53DB5C901089526B551
:1001700037B5C9010895882319F0813041F404C0CE
:100180008EB58F7B8EBD08958EB580648EBD08952B
:1001900089B7806289BF089589B78F7D89BF089527
:1001A00090936F0080936E0008951F920F920FB688
:1001B0000F9211242F933F934F935F936F937F93ED
:1001C0008F939F93AF93BF93EF93FF9380916600BC
:1001D00090916700A0916800B09169000196A11DFF
:1001E000B11D8093660090936700A0936800B09360
:1001F000690020917000309171004091720050911F
:10020000730082179307A407B50779F4E0916A0099
:10021000F0916B00309749F00995109266001092AA
:1002200067001092680010926900FF91EF91BF91F2
:10023000AF919F918F917F916F915F914F913F917E
:100240002F910F900FBE0F901F9018951F920F9235
:100250000FB60F9211242F933F934F935F936F9399
:100260007F938F939F93AF93BF93EF93FF9380916F
:10027000620090916300A0916400B09165000196C6
:10028000A11DB11D8093620090936300A093640050
:10029000B093650020917000309171004091720020
:1002A0005091730082179307A407B50779F4E09182
:1002B0006C00F0916D00309749F009951092620042
:1002C000109263001092640010926500FF91EF910C
:1002D000BF91AF919F918F917F916F915F914F915E
:1002E0003F912F910F900FBE0F901F9018951F9266
:1002F0000F920FB60F9211242F933F934F935F935A
:100300006F937F938F939F93AF93BF93EF93FF93DD
:10031000E0916E00F0916F000995FF91EF91BF9110
:10032000AF919F918F917F916F915F914F913F918D
:100330002F910F900FBE0F901F9018958FB98FB10E
:1003400008958FB908958FB1089581E065E041E087
:100350000E94DB0181E067E041E00E94DB0181E077
:1003600066E040E00E94DB0186ED8DB908958FB70D
:1003700080688FBF08958FB78F778FBF089585B737
:10038000886085BF85B78B7F85BF8BB780648BBF47
:1003900085B7826085BF85B78E7F85BF8BB7806448
:1003A0008BBF84B7806484BF8BB780648BBF089594
:1003B0000895089508954130B1F5813099F0813064
:1003C00030F08230D1F0833009F06BC021C02AB305
:1003D00081E090E002C0880F991F6A95E2F7282B10
:1003E0002ABB5DC027B381E090E002C0880F991F4F
:1003F0006A95E2F7282B27BB52C024B381E090E036
:1004000002C0880F991F6A95E2F7282B24BB47C0CA
:1004100021B381E090E002C0880F991F6A95E2F74E
:10042000282B21BB3CC0442311F080E0089581308B
:1004300099F0813028F08230D9F0833091F524C0D2
:100440002AB381E090E002C0880F991F6A95E2F715
:10045000809582238ABB23C027B381E090E002C04D
:10046000880F991F6A95E2F78095822387BB17C092
:1004700024B381E090E002C0880F991F6A95E2F7EB
:100480008095822384BB0BC021B381E090E002C041
:10049000880F991F6A95E2F78095822381BB81E0DE
:1004A000089581E008954130B1F5813099F08130AF
:1004B00030F08230D1F0833009F067C021C02BB317
:1004C00081E090E002C0880F991F6A95E2F7282B1F
:1004D0002BBB089528B381E090E002C0880F991FDC
:1004E0006A95E2F7282B28BB089525B381E090E0B8
:1004F00002C0880F991F6A95E2F7282B25BB089543
:1005000022B381E090E002C0880F991F6A95E2F75C
:10051000282B22BB08954423C1F5813099F0813006
:1005200028F08230D9F0833081F524C02BB381E0EC
:1005300090E002C0880F991F6A95E2F780958223A8
:100540008BBB089528B381E090E002C0880F991F0B
:100550006A95E2F78095822388BB089525B381E0F0
:1005600090E002C0880F991F6A95E2F78095822378
:1005700085BB089522B381E090E002C0880F991FE7
:100580006A95E2F78095822382BB0895813051F00D
:10059000813030F0823041F0833079F080E008958E
:1005A00089B303C086B301C083B390E002C09595C0
:1005B00087956A95E2F78170089580B390E002C054
:1005C000959587956A95E2F781700895813049F095
:1005D000813028F0823039F0833041F406C06ABBA4
:1005E000089567BB089564BB089561BB0895813089
:1005F00049F0813028F0823039F0833041F406C070
:100600006BBB089568BB089565BB089562BB0895F0
:10061000813091F0813028F08230C9F0833061F56B
:1006200021C02BB381E090E002C0880F991F6A952A
:10063000E2F728272BBB089528B381E090E002C0A1
:10064000880F991F6A95E2F7282728BB089525B3DC
:1006500081E090E002C0880F991F6A95E2F7282791
:1006600025BB089522B381E090E002C0880F991F56
:100670006A95E2F7282722BB08953F983E9A3D9855
:1006800086B1887F836086B93598339A379A089502
:1006900097B18770907E892B87B9369A349BFECFAD
:1006A000349A24B135B1C901089597B18770907E0D
:1006B000892B87B9369A089524B135B1C9010895B7
:1006C000909377008093760008955093770040933D
:1006D0007600709379006093780097B18770907E70
:1006E000892B87B9369A089586B182958F7080FFDD
:1006F00002C0109260008091600008951F920F92D6
:100700000FB60F9211242F933F934F935F936F93E4
:100710007F938F939F93AF93BF93EF93FF93E0915A
:100720007800F0917900309721F084B195B19183F0
:1007300080838091760090917700892B39F084B185
:1007400095B1E0917400F0917500099510926000E8
:10075000FF91EF91BF91AF919F918F917F916F9199
:100760005F914F913F912F910F900FBE0F901F906F
:1007700018950F931F93182F81E060E041E00E94CD
:10078000530281E061E040E00E94530282E0612F69
:100790000E94F70281E062E041E00E94530200ED16
:1007A00017E0C8010197F1F781E062E040E00E94A4
:1007B0005302C8010197F1F71F910F9108958830F6
:1007C00010F40E94B90308958F929F92BF92CF9226
:1007D000DF92EF92FF920F931F93DF93CF93CDB7EA
:1007E000DEB72A970FB6F894DEBF0FBECDBF6B0100
:1007F0007C01FE0131968AE0DF011D928A95E9F7BE
:10080000BB244F011BC084010B0D111DC701B60194
:100810002AE030E040E050E00E942305605DF801EE
:100820006083B394C701B6012AE030E040E050E0B5
:100830000E942305C901DA016C017D011C141D040D
:100840001E041F0404F3FB2CFA940F2D112707FD3F
:100850001095080D191D07C0D8018C910E94B9038D
:10086000FA9401501040F7FEF7CF2A960FB6F8948D
:10087000DEBF0FBECDBFCF91DF911F910F91FF90D3
:10088000EF90DF90CF90BF909F908F9008951F932F
:10089000CF93DF93EC0110E003C00E94B9031F5F08
:1008A000FE01E10FF11D80818823B9F7DF91CF911F
:1008B0001F9108950F931F93182F81E060E040E08F
:1008C0000E94530281E061E040E00E94530282E016
:1008D000612F0E94F70281E062E041E00E94530232
:1008E00000ED17E0C8010197F1F781E062E040E018
:1008F0000E945302C8010197F1F71F910F910895CB
:100900000F931F93CF93DF938B01880F880F880F6E
:10091000805C0E945A04C0E0D0E0F801EC0FFD1F9B
:1009200080810E94B9032196C830D105B1F780E8D3
:100930000E945A04DF91CF911F910F910895662371
:1009400019F0613041F404C080580E945A0408959F
:1009500080540E945A0408950F931F9382E06FEF12
:100960000E94E60281E060E041E00E94DB0181E05C
:1009700061E041E00E94DB0181E062E041E00E9431
:10098000DB0184EF91E028EC30E0F9013197F1F7D9
:100990000197D9F788E30E945A0400ED17E0C801D7
:1009A0000197F1F78FE00E945A04C8010197F1F70F
:1009B00081E00E945A0480E797E10197F1F786E011
:1009C0000E945A04C8010197F1F71F910F910895F1
:1009D0001F920F920FB60F9211242F933F934F93B4
:1009E0005F936F937F938F939F93AF93BF93EF9397
:1009F000FF9380E060E041E00E945302FF91EF919D
:100A0000BF91AF919F918F917F916F915F914F9126
:100A10003F912F910F900FBE0F901F9018950E943D
:100A2000B70180E060E041E00E94DB010E94A50187
:100A300080E060E040E00E94530285E00E94A10156
:100A40000E94A301FFCF97FB092E05260ED057FD6C
:100A500004D014D00AD0001C38F45095409530953D
:100A600021953F4F4F4F5F4F0895F6F79095809532
:100A7000709561957F4F8F4F9F4F0895A1E21A2E79
:100A8000AA1BBB1BFD010DC0AA1FBB1FEE1FFF1F32
:100A9000A217B307E407F50720F0A21BB30BE40B82
:100AA000F50B661F771F881F991F1A9469F76095C9
:100AB0007095809590959B01AC01BD01CF01089583
:040AC000F894FFCFD8
:020AC40001002F
:00000001FF
