:100000000C942A000C9447000C9447000C94470071
:100010000C9447000C9447000C945C010C9447002E
:100020000C9447000C9447000C940B010C94BA00FC
:100030000C9447000C9447000C9447000C94470024
:100040000C944A030C9447000C9447000C9447000E
:100050000C94470011241FBECFE5D8E0DEBFCDBF12
:1000600010E0A0E6B0E0EAE0FBE002C005900D92EF
:10007000A236B107D9F710E0A2E6B0E001C01D92A8
:10008000A638B107E1F70E94B4040C9483050C94E0
:1000900000008AE683BF80E88FBD82E48EBD0895AC
:1000A000882309F462BF0895882319F0813029F468
:1000B00002C06CBF08957BBD6ABD0895A0E0B0E0AA
:1000C0008093780090937900A0937A00B0937B009E
:1000D00070936B0060936A0083B7887F826083BFF0
:1000E0000895A0E0B0E08093780090937900A09309
:1000F0007A00B0937B0050936D0040936C0083B7FF
:10010000887F826083BF089583B7887F826083BFC2
:10011000089583B7887F83BF0895882329F08230AC
:1001200039F020E030E006C082B7282F30E002C06E
:100130002CB53DB5C901089526B537B5C901089557
:10014000882319F0813041F404C08EB58F7B8EBDB9
:1001500008958EB580648EBD089589B7806289BF89
:10016000089589B78F7D89BF089590936F0080931C
:100170006E0008951F920F920FB60F9211242F93C5
:100180003F934F935F936F937F938F939F93AF931F
:10019000BF93EF93FF938091660090916700A091C9
:1001A0006800B09169000196A11DB11D80936600A1
:1001B00090936700A0936800B09369002091780045
:1001C0003091790040917A0050917B00821793071B
:1001D000A407B50779F4E0916A00F0916B003097BD
:1001E00049F009951092660010926700109268001D
:1001F00010926900FF91EF91BF91AF919F918F9104
:100200007F916F915F914F913F912F910F900FBE12
:100210000F901F9018951F920F920FB60F921124F6
:100220002F933F934F935F936F937F938F939F93FE
:10023000AF93BF93EF93FF9380916200909163001F
:10024000A0916400B09165000196A11DB11D80933D
:10025000620090936300A0936400B09365002091C6
:1002600078003091790040917A0050917B0082179C
:100270009307A407B50779F4E0916C00F0916D0045
:10028000309749F009951092620010926300109225
:10029000640010926500FF91EF91BF91AF919F9123
:1002A0008F917F916F915F914F913F912F910F901F
:1002B0000FBE0F901F9018951F920F920FB60F92BE
:1002C00011242F933F934F935F936F937F938F935B
:1002D0009F93AF93BF93EF93FF93E0916E00F091E4
:1002E0006F000995FF91EF91BF91AF919F918F9111
:1002F0007F916F915F914F913F912F910F900FBE22
:100300000F901F9018958FB780688FBF08958FB793
:100310008F778FBF089585B7886085BF85B78B7F3E
:1003200085BF8BB780648BBF85B7826085BF85B77B
:100330008E7F85BF8BB780648BBF84B7806484BF9A
:100340008BB780648BBF0895089508950895413058
:10035000B1F5813099F0813030F08230D1F08330C6
:1003600009F06BC021C02AB381E090E002C0880F81
:10037000991F6A95E2F7282B2ABB5DC027B381E05D
:1003800090E002C0880F991F6A95E2F7282B27BBDF
:1003900052C024B381E090E002C0880F991F6A9593
:1003A000E2F7282B24BB47C021B381E090E002C0D4
:1003B000880F991F6A95E2F7282B21BB3CC0442384
:1003C00011F080E00895813099F0813028F082307A
:1003D000D9F0833091F524C02AB381E090E002C0C7
:1003E000880F991F6A95E2F7809582238ABB23C004
:1003F00027B381E090E002C0880F991F6A95E2F769
:100400008095822387BB17C024B381E090E002C0AF
:10041000880F991F6A95E2F78095822384BB0BC0F1
:1004200021B381E090E002C0880F991F6A95E2F73E
:100430008095822381BB81E0089581E00895413059
:10044000B1F5813099F0813030F08230D1F08330D5
:1004500009F067C021C02BB381E090E002C0880F93
:10046000991F6A95E2F7282B2BBB089528B381E0EA
:1004700090E002C0880F991F6A95E2F7282B28BBED
:10048000089525B381E090E002C0880F991F6A9516
:10049000E2F7282B25BB089522B381E090E002C04B
:1004A000880F991F6A95E2F7282B22BB08954423F1
:1004B000C1F5813099F0813028F08230D9F0833055
:1004C00081F524C02BB381E090E002C0880F991F12
:1004D0006A95E2F7809582238BBB089528B381E06B
:1004E00090E002C0880F991F6A95E2F780958223F9
:1004F00088BB089525B381E090E002C0880F991F62
:100500006A95E2F78095822385BB089522B381E046
:1005100090E002C0880F991F6A95E2F780958223C8
:1005200082BB0895813051F0813030F0823041F04B
:10053000833079F080E0089589B303C086B301C0A9
:1005400083B390E002C0959587956A95E2F7817034
:10055000089580B390E002C0959587956A95E2F77B
:1005600081700895813049F0813028F0823039F06F
:10057000833041F406C06ABB089567BB089564BB2D
:10058000089561BB0895813049F0813028F08230B0
:1005900039F0833041F406C06BBB089568BB089501
:1005A00065BB089562BB0895813091F0813028F0D9
:1005B0008230C9F0833061F521C02BB381E090E037
:1005C00002C0880F991F6A95E2F728272BBB089570
:1005D00028B381E090E002C0880F991F6A95E2F786
:1005E000282728BB089525B381E090E002C0880F3A
:1005F000991F6A95E2F7282725BB089522B381E069
:1006000090E002C0880F991F6A95E2F7282722BB65
:1006100008953F983E9A3D9886B1887F836086B959
:100620003598339A379A089597B18770907E892BC1
:1006300087B9369A349BFECF349A24B135B1C901BB
:10064000089597B18770907E892B87B9369A08955F
:1006500024B135B1C901089590937F0080937E0045
:10066000089550937F0040937E00709381006093C3
:10067000800097B18770907E892B87B9369A08954C
:1006800086B182958F7080FF02C0109260008091C9
:10069000600008951F920F920FB60F9211242F93AE
:1006A0003F934F935F936F937F938F939F93AF93FA
:1006B000BF93EF93FF93E0918000F091810030971A
:1006C00021F084B195B19183808380917E009091D7
:1006D0007F00892B39F084B195B1E0917C00F091D5
:1006E0007D00099510926000FF91EF91BF91AF914D
:1006F0009F918F917F916F915F914F913F912F913A
:100700000F900FBE0F901F9018950F931F93182FE7
:1007100081E060E041E00E941F0281E061E040E092
:100720000E941F0282E0612F0E94C30281E062E00A
:1007300041E00E941F0200ED17E0C8010197F1F7A8
:1007400081E062E040E00E941F02C8010197F1F7DA
:100750001F910F910895883010F40E948503089529
:100760008F929F92BF92CF92DF92EF92FF920F9360
:100770001F93DF93CF93CDB7DEB72A970FB6F894C8
:10078000DEBF0FBECDBF6B017C01FE0131968AE05A
:10079000DF011D928A95E9F7BB244F011BC084013C
:1007A0000B0D111DC701B6012AE030E040E050E01A
:1007B0000E944605605DF8016083B394C701B601ED
:1007C0002AE030E040E050E00E944605C901DA012D
:1007D0006C017D011C141D041E041F0404F3FB2C7A
:1007E000FA940F2D112707FD1095080D191D07C04C
:1007F000D8018C910E948503FA9401501040F7FEB5
:10080000F7CF2A960FB6F894DEBF0FBECDBFCF91BB
:10081000DF911F910F91FF90EF90DF90CF90BF90ED
:100820009F908F9008951F93CF93DF93EC0110E07A
:1008300003C00E9485031F5FFE01E10FF11D80814F
:100840008823B9F7DF91CF911F9108950F931F93DC
:10085000182F81E060E040E00E941F0281E061E02B
:1008600040E00E941F0282E0612F0E94C30281E0EB
:1008700062E041E00E941F0200ED17E0C80101970D
:10088000F1F781E062E040E00E941F02C801019799
:10089000F1F71F910F9108950F931F93CF93DF935B
:1008A0008B01880F880F880F805C0E942604C0E0AF
:1008B000D0E0F801EC0FFD1F80810E948503219696
:1008C000C830D105B1F780E80E942604DF91CF91AE
:1008D0001F910F910895662319F0613041F404C00F
:1008E00080580E942604089580540E94260408958A
:1008F0000F931F9382E06FEF0E94B20281E060E0ED
:1009000041E00E94A70181E061E041E00E94A7016F
:1009100081E062E041E00E94A70184EF91E028ECD1
:1009200030E0F9013197F1F70197D9F788E30E9498
:10093000260400ED17E0C8010197F1F78FE00E944F
:100940002604C8010197F1F781E00E94260480E7A0
:1009500097E10197F1F786E00E942604C80101970C
:10096000F1F71F910F91089581E063E041E00E944B
:10097000A70183E066E040E00E94A7010E944900D1
:1009800083EF94E00E94B5000E9484000E947804E6
:1009900081E062EA70E00E9454000E94830180912D
:1009A00070008823E1F31092700081E00E94260419
:1009B00080E060E00E946B0460918200709183008F
:1009C00080E090E00E94B00381E060E00E946B0450
:1009D000609184007091850080E090E00E94B003F7
:1009E0000E94AD00DCCF809177008F5F809377000D
:1009F000823079F0833029F1813009F041C00E94C2
:100A00009C00909372008093710081E00E94A0008E
:100A100008950E949C00909374008093730080E07E
:100A20000E94A00080917300909174002091710049
:100A300030917200821B930B909385008093840009
:100A400008950E949C00909376008093750081E049
:100A50000E94A00080E00E94B100809175009091FA
:100A600076002091730030917400821B930B909359
:100A70008300809382001092770081E08093700061
:100A8000089580E060E00E94D402089597FB092E4B
:100A900005260ED057FD04D014D00AD0001C38F41F
:100AA00050954095309521953F4F4F4F5F4F08959A
:100AB000F6F790958095709561957F4F8F4F9F4F7A
:100AC0000895A1E21A2EAA1BBB1BFD010DC0AA1F8F
:100AD000BB1FEE1FFF1FA217B307E407F50720F0A7
:100AE000A21BB30BE40BF50B661F771F881F991F22
:100AF0001A9469F760957095809590959B01AC016B
:0A0B0000BD01CF010895F894FFCF66
:020B0A000100E8
:00000001FF
