:100000000C942A000C943F000C943F000C943F0089
:100010000C943F000C943F000C943F000C943F0064
:100020000C943F000C943F000C943F000C943F0054
:100030000C943F000C943F000C943F000C943F0044
:100040000C943F000C943F000C943F000C943F0034
:100050000C943F0011241FBECFE5D8E0DEBFCDBF1A
:1000600010E0A0E6B0E0ECE5F3E002C005900D92F0
:10007000A836B107D9F70E946E010C94AC010C941C
:1000800000004130B1F5813099F0813030F082309C
:10009000D1F0833009F06BC021C02AB381E090E039
:1000A00002C0880F991F6A95E2F7282B2ABB5DC012
:1000B00027B381E090E002C0880F991F6A95E2F7AC
:1000C000282B27BB52C024B381E090E002C0880FE8
:1000D000991F6A95E2F7282B24BB47C021B381E022
:1000E00090E002C0880F991F6A95E2F7282B21BB88
:1000F0003CC0442311F080E00895813099F08130B4
:1001000028F08230D9F0833091F524C02AB381E001
:1001100090E002C0880F991F6A95E2F780958223CC
:100120008ABB23C027B381E090E002C0880F991FEB
:100130006A95E2F78095822387BB17C024B381E0DC
:1001400090E002C0880F991F6A95E2F7809582239C
:1001500084BB0BC021B381E090E002C0880F991FDF
:100160006A95E2F78095822381BB81E0089581E062
:1001700008954130B1F5813099F0813030F082300E
:10018000D1F0833009F067C021C02BB381E090E04B
:1001900002C0880F991F6A95E2F7282B2BBB0895A0
:1001A00028B381E090E002C0880F991F6A95E2F7BA
:1001B000282B28BB089525B381E090E002C0880F6A
:1001C000991F6A95E2F7282B25BB089522B381E099
:1001D00090E002C0880F991F6A95E2F7282B22BB96
:1001E00008954423C1F5813099F0813028F08230A0
:1001F000D9F0833081F524C02BB381E090E002C0B8
:10020000880F991F6A95E2F7809582238BBB08952A
:1002100028B381E090E002C0880F991F6A95E2F749
:100220008095822388BB089525B381E090E002C0C9
:10023000880F991F6A95E2F78095822385BB089500
:1002400022B381E090E002C0880F991F6A95E2F71F
:100250008095822382BB0895813051F0813030F047
:10026000823041F0833079F080E0089589B303C093
:1002700086B301C083B390E002C0959587956A95D7
:10028000E2F78170089580B390E002C0959587955C
:100290006A95E2F781700895813049F0813028F045
:1002A000823039F0833041F406C06ABB089567BBE1
:1002B000089564BB089561BB0895813049F0813091
:1002C00028F0823039F0833041F406C06BBB0895CA
:1002D00068BB089565BB089562BB0895AF92BF9255
:1002E000CF92DF92EF92FF920F931F93DF93CF9302
:1002F000CDB7DEB728970FB6F894DEBF0FBECDBFDF
:10030000DE011196E0E6F0E088E001900D92815068
:10031000E1F76FE00E944C015E010894A11CB11C42
:1003200098ECC92ED12C89E0E82EF12CEC0EFD1EA4
:1003300011C080E0F80160810E945D0180E991E0D8
:10034000F6013197F1F70197D9F70F5F1F4F0E159F
:0C0350001F0579F78501EDCFF894FFCF71
:08035C000901030206040C086C
:00000001FF
